{"abi":[{"type":"constructor","inputs":[],"stateMutability":"nonpayable"},{"type":"function","name":"createProposal","inputs":[{"name":"title","type":"string","internalType":"string"},{"name":"description","type":"string","internalType":"string"},{"name":"durationInSeconds","type":"uint256","internalType":"uint256"}],"outputs":[{"name":"","type":"uint256","internalType":"uint256"}],"stateMutability":"nonpayable"},{"type":"function","name":"finalizeProposal","inputs":[{"name":"proposalId","type":"uint256","internalType":"uint256"}],"outputs":[],"stateMutability":"nonpayable"},{"type":"function","name":"getProposal","inputs":[{"name":"proposalId","type":"uint256","internalType":"uint256"}],"outputs":[{"name":"id","type":"uint256","internalType":"uint256"},{"name":"title","type":"string","internalType":"string"},{"name":"description","type":"string","internalType":"string"},{"name":"voteFor","type":"uint256","internalType":"uint256"},{"name":"voteAgainst","type":"uint256","internalType":"uint256"},{"name":"deadline","type":"uint256","internalType":"uint256"},{"name":"status","type":"uint8","internalType":"enum Voting.ProposalStatus"},{"name":"creator","type":"address","internalType":"address"}],"stateMutability":"view"},{"type":"function","name":"getVoteCount","inputs":[{"name":"proposalId","type":"uint256","internalType":"uint256"}],"outputs":[{"name":"forVotes","type":"uint256","internalType":"uint256"},{"name":"againstVotes","type":"uint256","internalType":"uint256"}],"stateMutability":"view"},{"type":"function","name":"hasVoted","inputs":[{"name":"","type":"uint256","internalType":"uint256"},{"name":"","type":"address","internalType":"address"}],"outputs":[{"name":"","type":"bool","internalType":"bool"}],"stateMutability":"view"},{"type":"function","name":"owner","inputs":[],"outputs":[{"name":"","type":"address","internalType":"address"}],"stateMutability":"view"},{"type":"function","name":"proposalCount","inputs":[],"outputs":[{"name":"","type":"uint256","internalType":"uint256"}],"stateMutability":"view"},{"type":"function","name":"proposals","inputs":[{"name":"","type":"uint256","internalType":"uint256"}],"outputs":[{"name":"id","type":"uint256","internalType":"uint256"},{"name":"title","type":"string","internalType":"string"},{"name":"description","type":"string","internalType":"string"},{"name":"voteFor","type":"uint256","internalType":"uint256"},{"name":"voteAgainst","type":"uint256","internalType":"uint256"},{"name":"deadline","type":"uint256","internalType":"uint256"},{"name":"status","type":"uint8","internalType":"enum Voting.ProposalStatus"},{"name":"creator","type":"address","internalType":"address"}],"stateMutability":"view"},{"type":"function","name":"vote","inputs":[{"name":"proposalId","type":"uint256","internalType":"uint256"},{"name":"support","type":"bool","internalType":"bool"}],"outputs":[],"stateMutability":"nonpayable"},{"type":"event","name":"ProposalCreated","inputs":[{"name":"id","type":"uint256","indexed":true,"internalType":"uint256"},{"name":"title","type":"string","indexed":false,"internalType":"string"},{"name":"creator","type":"address","indexed":true,"internalType":"address"},{"name":"deadline","type":"uint256","indexed":false,"internalType":"uint256"}],"anonymous":false},{"type":"event","name":"ProposalFinalized","inputs":[{"name":"id","type":"uint256","indexed":true,"internalType":"uint256"},{"name":"status","type":"uint8","indexed":false,"internalType":"enum Voting.ProposalStatus"}],"anonymous":false},{"type":"event","name":"Voted","inputs":[{"name":"proposalId","type":"uint256","indexed":true,"internalType":"uint256"},{"name":"voter","type":"address","indexed":true,"internalType":"address"},{"name":"support","type":"bool","indexed":false,"internalType":"bool"}],"anonymous":false}],"bytecode":{"object":"0x6080604052348015600e575f5ffd5b50335f5f6101000a81548173ffffffffffffffffffffffffffffffffffffffff021916908373ffffffffffffffffffffffffffffffffffffffff1602179055505f600181905550611a62806100625f395ff3fe608060405234801561000f575f5ffd5b5060043610610091575f3560e01c80638da5cb5b116100645780638da5cb5b14610148578063b2c2f2e814610166578063c7f758a814610197578063c9d27afe146101ce578063da35c664146101ea57610091565b8063013cf08b146100955780630ce0ebf4146100cc57806343859632146100fc5780635652077c1461012c575b5f5ffd5b6100af60048036038101906100aa9190610e2b565b610208565b6040516100c3989796959493929190610f87565b60405180910390f35b6100e660048036038101906100e1919061113d565b610384565b6040516100f391906111c5565b60405180910390f35b61011660048036038101906101119190611208565b6105d7565b6040516101239190611260565b60405180910390f35b61014660048036038101906101419190610e2b565b610601565b005b610150610814565b60405161015d9190611279565b60405180910390f35b610180600480360381019061017b9190610e2b565b610838565b60405161018e929190611292565b60405180910390f35b6101b160048036038101906101ac9190610e2b565b6108b3565b6040516101c5989796959493929190610f87565b60405180910390f35b6101e860048036038101906101e391906112e3565b610b3c565b005b6101f2610de1565b6040516101ff91906111c5565b60405180910390f35b6002602052805f5260405f205f91509050805f01549080600101805461022d9061134e565b80601f01602080910402602001604051908101604052809291908181526020018280546102599061134e565b80156102a45780601f1061027b576101008083540402835291602001916102a4565b820191905f5260205f20905b81548152906001019060200180831161028757829003601f168201915b5050505050908060020180546102b99061134e565b80601f01602080910402602001604051908101604052809291908181526020018280546102e59061134e565b80156103305780601f1061030757610100808354040283529160200191610330565b820191905f5260205f20905b81548152906001019060200180831161031357829003601f168201915b505050505090806003015490806004015490806005015490806006015f9054906101000a900460ff16908060060160019054906101000a900473ffffffffffffffffffffffffffffffffffffffff16905088565b5f5f8451116103c8576040517f08c379a00000000000000000000000000000000000000000000000000000000081526004016103bf906113c8565b60405180910390fd5b5f821161040a576040517f08c379a000000000000000000000000000000000000000000000000000000000815260040161040190611430565b60405180910390fd5b5f60015490506040518061010001604052808281526020018681526020018581526020015f81526020015f81526020018442610446919061147b565b81526020015f600381111561045e5761045d610ed5565b5b81526020013373ffffffffffffffffffffffffffffffffffffffff1681525060025f8381526020019081526020015f205f820151815f015560208201518160010190816104ab919061165f565b5060408201518160020190816104c1919061165f565b50606082015181600301556080820151816004015560a0820151816005015560c0820151816006015f6101000a81548160ff0219169083600381111561050a57610509610ed5565b5b021790555060e08201518160060160016101000a81548173ffffffffffffffffffffffffffffffffffffffff021916908373ffffffffffffffffffffffffffffffffffffffff16021790555090505060015f81548092919061056b9061172e565b91905055503373ffffffffffffffffffffffffffffffffffffffff16817f9cc3d9dd626042cdefb76484b91708c3207b637214b44f20111c893548d9c85f8786426105b6919061147b565b6040516105c4929190611775565b60405180910390a3809150509392505050565b6003602052815f5260405f20602052805f5260405f205f915091509054906101000a900460ff1681565b806001548110610646576040517f08c379a000000000000000000000000000000000000000000000000000000000815260040161063d906117ed565b60405180910390fd5b5f60025f8481526020019081526020015f2090505f600381111561066d5761066c610ed5565b5b816006015f9054906101000a900460ff1660038111156106905761068f610ed5565b5b146106d0576040517f08c379a00000000000000000000000000000000000000000000000000000000081526004016106c790611855565b60405180910390fd5b8060050154421015610717576040517f08c379a000000000000000000000000000000000000000000000000000000000815260040161070e906118bd565b60405180910390fd5b806004015481600301541115610758576001816006015f6101000a81548160ff0219169083600381111561074e5761074d610ed5565b5b02179055506107c7565b806003015481600401541115610799576002816006015f6101000a81548160ff0219169083600381111561078f5761078e610ed5565b5b02179055506107c6565b6003816006015f6101000a81548160ff021916908360038111156107c0576107bf610ed5565b5b02179055505b5b827f34a42c4ce0a88d16ad098de6406057747139a2a3dd8dd8616ee7bbabcecb768e826006015f9054906101000a900460ff1660405161080791906118db565b60405180910390a2505050565b5f5f9054906101000a900473ffffffffffffffffffffffffffffffffffffffff1681565b5f5f82600154811061087f576040517f08c379a0000000000000000000000000000000000000000000000000000000008152600401610876906117ed565b60405180910390fd5b60025f8581526020019081526020015f206003015460025f8681526020019081526020015f20600401549250925050915091565b5f6060805f5f5f5f5f886001548110610901576040517f08c379a00000000000000000000000000000000000000000000000000000000081526004016108f8906117ed565b60405180910390fd5b5f60025f8c81526020019081526020015f20604051806101000160405290815f82015481526020016001820180546109389061134e565b80601f01602080910402602001604051908101604052809291908181526020018280546109649061134e565b80156109af5780601f10610986576101008083540402835291602001916109af565b820191905f5260205f20905b81548152906001019060200180831161099257829003601f168201915b505050505081526020016002820180546109c89061134e565b80601f01602080910402602001604051908101604052809291908181526020018280546109f49061134e565b8015610a3f5780601f10610a1657610100808354040283529160200191610a3f565b820191905f5260205f20905b815481529060010190602001808311610a2257829003601f168201915b50505050508152602001600382015481526020016004820154815260200160058201548152602001600682015f9054906101000a900460ff166003811115610a8a57610a89610ed5565b5b6003811115610a9c57610a9b610ed5565b5b81526020016006820160019054906101000a900473ffffffffffffffffffffffffffffffffffffffff1673ffffffffffffffffffffffffffffffffffffffff1673ffffffffffffffffffffffffffffffffffffffff16815250509050805f015181602001518260400151836060015184608001518560a001518660c001518760e00151995099509950995099509950995099505050919395975091939597565b816001548110610b81576040517f08c379a0000000000000000000000000000000000000000000000000000000008152600401610b78906117ed565b60405180910390fd5b5f60025f8581526020019081526020015f2090505f6003811115610ba857610ba7610ed5565b5b816006015f9054906101000a900460ff166003811115610bcb57610bca610ed5565b5b14610c0b576040517f08c379a0000000000000000000000000000000000000000000000000000000008152600401610c029061193e565b60405180910390fd5b80600501544210610c51576040517f08c379a0000000000000000000000000000000000000000000000000000000008152600401610c48906119a6565b60405180910390fd5b60035f8581526020019081526020015f205f3373ffffffffffffffffffffffffffffffffffffffff1673ffffffffffffffffffffffffffffffffffffffff1681526020019081526020015f205f9054906101000a900460ff1615610cea576040517f08c379a0000000000000000000000000000000000000000000000000000000008152600401610ce190611a0e565b60405180910390fd5b600160035f8681526020019081526020015f205f3373ffffffffffffffffffffffffffffffffffffffff1673ffffffffffffffffffffffffffffffffffffffff1681526020019081526020015f205f6101000a81548160ff0219169083151502179055508215610d7257806003015f815480929190610d689061172e565b9190505550610d8c565b806004015f815480929190610d869061172e565b91905055505b3373ffffffffffffffffffffffffffffffffffffffff16847ff2913dbe661ee2acc4a046d8fbcdc792373bda34c41c6086484b5345e5785e5f85604051610dd39190611260565b60405180910390a350505050565b60015481565b5f604051905090565b5f5ffd5b5f5ffd5b5f819050919050565b610e0a81610df8565b8114610e14575f5ffd5b50565b5f81359050610e2581610e01565b92915050565b5f60208284031215610e4057610e3f610df0565b5b5f610e4d84828501610e17565b91505092915050565b610e5f81610df8565b82525050565b5f81519050919050565b5f82825260208201905092915050565b8281835e5f83830152505050565b5f601f19601f8301169050919050565b5f610ea782610e65565b610eb18185610e6f565b9350610ec1818560208601610e7f565b610eca81610e8d565b840191505092915050565b7f4e487b71000000000000000000000000000000000000000000000000000000005f52602160045260245ffd5b60048110610f1357610f12610ed5565b5b50565b5f819050610f2382610f02565b919050565b5f610f3282610f16565b9050919050565b610f4281610f28565b82525050565b5f73ffffffffffffffffffffffffffffffffffffffff82169050919050565b5f610f7182610f48565b9050919050565b610f8181610f67565b82525050565b5f61010082019050610f9b5f83018b610e56565b8181036020830152610fad818a610e9d565b90508181036040830152610fc18189610e9d565b9050610fd06060830188610e56565b610fdd6080830187610e56565b610fea60a0830186610e56565b610ff760c0830185610f39565b61100460e0830184610f78565b9998505050505050505050565b5f5ffd5b5f5ffd5b7f4e487b71000000000000000000000000000000000000000000000000000000005f52604160045260245ffd5b61104f82610e8d565b810181811067ffffffffffffffff8211171561106e5761106d611019565b5b80604052505050565b5f611080610de7565b905061108c8282611046565b919050565b5f67ffffffffffffffff8211156110ab576110aa611019565b5b6110b482610e8d565b9050602081019050919050565b828183375f83830152505050565b5f6110e16110dc84611091565b611077565b9050828152602081018484840111156110fd576110fc611015565b5b6111088482856110c1565b509392505050565b5f82601f83011261112457611123611011565b5b81356111348482602086016110cf565b91505092915050565b5f5f5f6060848603121561115457611153610df0565b5b5f84013567ffffffffffffffff81111561117157611170610df4565b5b61117d86828701611110565b935050602084013567ffffffffffffffff81111561119e5761119d610df4565b5b6111aa86828701611110565b92505060406111bb86828701610e17565b9150509250925092565b5f6020820190506111d85f830184610e56565b92915050565b6111e781610f67565b81146111f1575f5ffd5b50565b5f81359050611202816111de565b92915050565b5f5f6040838503121561121e5761121d610df0565b5b5f61122b85828601610e17565b925050602061123c858286016111f4565b9150509250929050565b5f8115159050919050565b61125a81611246565b82525050565b5f6020820190506112735f830184611251565b92915050565b5f60208201905061128c5f830184610f78565b92915050565b5f6040820190506112a55f830185610e56565b6112b26020830184610e56565b9392505050565b6112c281611246565b81146112cc575f5ffd5b50565b5f813590506112dd816112b9565b92915050565b5f5f604083850312156112f9576112f8610df0565b5b5f61130685828601610e17565b9250506020611317858286016112cf565b9150509250929050565b7f4e487b71000000000000000000000000000000000000000000000000000000005f52602260045260245ffd5b5f600282049050600182168061136557607f821691505b60208210810361137857611377611321565b5b50919050565b7f5469746c652063616e6e6f7420626520656d70747900000000000000000000005f82015250565b5f6113b2601583610e6f565b91506113bd8261137e565b602082019050919050565b5f6020820190508181035f8301526113df816113a6565b9050919050565b7f4475726174696f6e206d75737420626520706f736974697665000000000000005f82015250565b5f61141a601983610e6f565b9150611425826113e6565b602082019050919050565b5f6020820190508181035f8301526114478161140e565b9050919050565b7f4e487b71000000000000000000000000000000000000000000000000000000005f52601160045260245ffd5b5f61148582610df8565b915061149083610df8565b92508282019050808211156114a8576114a761144e565b5b92915050565b5f819050815f5260205f209050919050565b5f6020601f8301049050919050565b5f82821b905092915050565b5f6008830261150a7fffffffffffffffffffffffffffffffffffffffffffffffffffffffffffffffff826114cf565b61151486836114cf565b95508019841693508086168417925050509392505050565b5f819050919050565b5f61154f61154a61154584610df8565b61152c565b610df8565b9050919050565b5f819050919050565b61156883611535565b61157c61157482611556565b8484546114db565b825550505050565b5f5f905090565b611593611584565b61159e81848461155f565b505050565b5f5b828110156115c4576115b95f82840161158b565b6001810190506115a5565b505050565b601f8211156116175782821115611616576115e3816114ae565b6115ec836114c0565b6115f5856114c0565b6020861015611602575f90505b808301611611828403826115a3565b505050505b5b505050565b5f82821c905092915050565b5f6116375f198460080261161c565b1980831691505092915050565b5f61164f8383611628565b9150826002028217905092915050565b61166882610e65565b67ffffffffffffffff81111561168157611680611019565b5b61168b825461134e565b6116968282856115c9565b5f60209050601f8311600181146116c7575f84156116b5578287015190505b6116bf8582611644565b865550611726565b601f1984166116d5866114ae565b5f5b828110156116fc578489015182556001820191506020850194506020810190506116d7565b868310156117195784890151611715601f891682611628565b8355505b6001600288020188555050505b505050505050565b5f61173882610df8565b91507fffffffffffffffffffffffffffffffffffffffffffffffffffffffffffffffff820361176a5761176961144e565b5b600182019050919050565b5f6040820190508181035f83015261178d8185610e9d565b905061179c6020830184610e56565b9392505050565b7f50726f706f73616c20646f6573206e6f742065786973740000000000000000005f82015250565b5f6117d7601783610e6f565b91506117e2826117a3565b602082019050919050565b5f6020820190508181035f830152611804816117cb565b9050919050565b7f50726f706f73616c20616c72656164792066696e616c697a65640000000000005f82015250565b5f61183f601a83610e6f565b915061184a8261180b565b602082019050919050565b5f6020820190508181035f83015261186c81611833565b9050919050565b7f566f74696e6720706572696f64206e6f7420656e6465640000000000000000005f82015250565b5f6118a7601783610e6f565b91506118b282611873565b602082019050919050565b5f6020820190508181035f8301526118d48161189b565b9050919050565b5f6020820190506118ee5f830184610f39565b92915050565b7f50726f706f73616c206973206e6f7420616374697665000000000000000000005f82015250565b5f611928601683610e6f565b9150611933826118f4565b602082019050919050565b5f6020820190508181035f8301526119558161191c565b9050919050565b7f566f74696e6720706572696f642068617320656e6465640000000000000000005f82015250565b5f611990601783610e6f565b915061199b8261195c565b602082019050919050565b5f6020820190508181035f8301526119bd81611984565b9050919050565b7f416c726561647920766f746564000000000000000000000000000000000000005f82015250565b5f6119f8600d83610e6f565b9150611a03826119c4565b602082019050919050565b5f6020820190508181035f830152611a25816119ec565b905091905056fea26469706673582212202aeadfa05ae1525884e943316d24aed0da2cd04cd7e916f6574d275b844cbd2764736f6c63430008230033","linkReferences":{}},"methodIdentifiers":{"createProposal(string,string,uint256)":"0ce0ebf4","finalizeProposal(uint256)":"5652077c","getProposal(uint256)":"c7f758a8","getVoteCount(uint256)":"b2c2f2e8","hasVoted(uint256,address)":"43859632","owner()":"8da5cb5b","proposalCount()":"da35c664","proposals(uint256)":"013cf08b","vote(uint256,bool)":"c9d27afe"},"id":19}